{
  "_format": "hh-sol-artifact-1",
  "contractName": "WavePortal",
  "sourceName": "contracts/WavePortal.sol",
  "abi": [
    {
      "inputs": [],
      "stateMutability": "payable",
      "type": "constructor"
    },
    {
      "anonymous": false,
      "inputs": [
        {
          "indexed": true,
          "internalType": "address",
          "name": "from",
          "type": "address"
        },
        {
          "indexed": false,
          "internalType": "uint256",
          "name": "timestamp",
          "type": "uint256"
        },
        {
          "indexed": false,
          "internalType": "string",
          "name": "message",
          "type": "string"
        }
      ],
      "name": "NewWave",
      "type": "event"
    },
    {
      "inputs": [],
      "name": "getAllWaves",
      "outputs": [
        {
          "components": [
            {
              "internalType": "address",
              "name": "waver",
              "type": "address"
            },
            {
              "internalType": "string",
              "name": "message",
              "type": "string"
            },
            {
              "internalType": "uint256",
              "name": "timestamp",
              "type": "uint256"
            }
          ],
          "internalType": "struct WavePortal.Wave[]",
          "name": "",
          "type": "tuple[]"
        }
      ],
      "stateMutability": "view",
      "type": "function"
    },
    {
      "inputs": [],
      "name": "getTotalWaves",
      "outputs": [
        {
          "internalType": "uint256",
          "name": "",
          "type": "uint256"
        }
      ],
      "stateMutability": "view",
      "type": "function"
    },
    {
      "inputs": [
        {
          "internalType": "address",
          "name": "",
          "type": "address"
        }
      ],
      "name": "lastWavedAt",
      "outputs": [
        {
          "internalType": "uint256",
          "name": "",
          "type": "uint256"
        }
      ],
      "stateMutability": "view",
      "type": "function"
    },
    {
      "inputs": [
        {
          "internalType": "string",
          "name": "_message",
          "type": "string"
        }
      ],
      "name": "wave",
      "outputs": [],
      "stateMutability": "nonpayable",
      "type": "function"
    }
  ],
  "bytecode": "0x60806040526200003360405180606001604052806025815260200162001459602591396200005b60201b6200064f1760201c565b60644442620000439190620001a8565b6200004f919062000245565b600181905550620002ec565b620000fb8160405160240162000072919062000168565b6040516020818303038152906040527f41304fac000000000000000000000000000000000000000000000000000000007bffffffffffffffffffffffffffffffffffffffffffffffffffffffff19166020820180517bffffffffffffffffffffffffffffffffffffffffffffffffffffffff8381831617835250505050620000fe60201b60201c565b50565b60008151905060006a636f6e736f6c652e6c6f679050602083016000808483855afa5050505050565b600062000134826200018c565b62000140818562000197565b9350620001528185602086016200020f565b6200015d81620002db565b840191505092915050565b6000602082019050818103600083015262000184818462000127565b905092915050565b600081519050919050565b600082825260208201905092915050565b6000620001b58262000205565b9150620001c28362000205565b9250827fffffffffffffffffffffffffffffffffffffffffffffffffffffffffffffffff03821115620001fa57620001f96200027d565b5b828201905092915050565b6000819050919050565b60005b838110156200022f57808201518184015260208101905062000212565b838111156200023f576000848401525b50505050565b6000620002528262000205565b91506200025f8362000205565b925082620002725762000271620002ac565b5b828206905092915050565b7f4e487b7100000000000000000000000000000000000000000000000000000000600052601160045260246000fd5b7f4e487b7100000000000000000000000000000000000000000000000000000000600052601260045260246000fd5b6000601f19601f8301169050919050565b61115d80620002fc6000396000f3fe608060405234801561001057600080fd5b506004361061004c5760003560e01c8063449d46c0146100515780639a2cdc081461006d578063a42a46631461008b578063bd43a908146100bb575b600080fd5b61006b60048036038101906100669190610992565b6100d9565b005b61007561049b565b6040516100829190610cff565b60405180910390f35b6100a560048036038101906100a09190610969565b6104e6565b6040516100b29190610cff565b60405180910390f35b6100c36104fe565b6040516100d09190610bfb565b60405180910390f35b42600f600260003373ffffffffffffffffffffffffffffffffffffffff1673ffffffffffffffffffffffffffffffffffffffff168152602001908152602001600020546101269190610e11565b10610166576040517f08c379a000000000000000000000000000000000000000000000000000000000815260040161015d90610cdf565b60405180910390fd5b42600260003373ffffffffffffffffffffffffffffffffffffffff1673ffffffffffffffffffffffffffffffffffffffff1681526020019081526020016000208190555060016000808282546101bc9190610e11565b92505081905550600060405180606001604052803373ffffffffffffffffffffffffffffffffffffffff168152602001838152602001428152509050600381908060018154018082558091505060019003906000526020600020906003020160009091909190915060008201518160000160006101000a81548173ffffffffffffffffffffffffffffffffffffffff021916908373ffffffffffffffffffffffffffffffffffffffff1602179055506020820151816001019080519060200190610287929190610849565b506040820151816002015550503373ffffffffffffffffffffffffffffffffffffffff167f5f7e16dc676677766a70e9c5628aa6c54ddb8b6e5188e2ae1e1f17f1ffbea71642846040516102dc929190610d1a565b60405180910390a2606460015442446102f59190610e11565b6102ff9190610e11565b6103099190610f48565b6001819055506103506040518060400160405280601681526020017f52616e646f6d20232067656e6572617465643a202564000000000000000000008152506001546106e8565b603260015410156104975761039a6040518060400160405280600781526020017f257320776f6e210000000000000000000000000000000000000000000000000081525033610784565b6000655af3107a40009050478111156103e8576040517f08c379a00000000000000000000000000000000000000000000000000000000081526004016103df90610c9f565b60405180910390fd5b60003373ffffffffffffffffffffffffffffffffffffffff168260405161040e90610be6565b60006040518083038185875af1925050503d806000811461044b576040519150601f19603f3d011682016040523d82523d6000602084013e610450565b606091505b5050905080610494576040517f08c379a000000000000000000000000000000000000000000000000000000000815260040161048b90610cbf565b60405180910390fd5b50505b5050565b60006104de6040518060400160405280601781526020017f5765206861766520256420746f74616c207761766573210000000000000000008152506000546106e8565b600054905090565b60026020528060005260406000206000915090505481565b60606003805480602002602001604051908101604052809291908181526020016000905b8282101561064657838290600052602060002090600302016040518060600160405290816000820160009054906101000a900473ffffffffffffffffffffffffffffffffffffffff1673ffffffffffffffffffffffffffffffffffffffff1673ffffffffffffffffffffffffffffffffffffffff1681526020016001820180546105ab90610ee5565b80601f01602080910402602001604051908101604052809291908181526020018280546105d790610ee5565b80156106245780601f106105f957610100808354040283529160200191610624565b820191906000526020600020905b81548152906001019060200180831161060757829003601f168201915b5050505050815260200160028201548152505081526020019060010190610522565b50505050905090565b6106e5816040516024016106639190610c1d565b6040516020818303038152906040527f41304fac000000000000000000000000000000000000000000000000000000007bffffffffffffffffffffffffffffffffffffffffffffffffffffffff19166020820180517bffffffffffffffffffffffffffffffffffffffffffffffffffffffff8381831617835250505050610820565b50565b61078082826040516024016106fe929190610c6f565b6040516020818303038152906040527f9710a9d0000000000000000000000000000000000000000000000000000000007bffffffffffffffffffffffffffffffffffffffffffffffffffffffff19166020820180517bffffffffffffffffffffffffffffffffffffffffffffffffffffffff8381831617835250505050610820565b5050565b61081c828260405160240161079a929190610c3f565b6040516020818303038152906040527f319af333000000000000000000000000000000000000000000000000000000007bffffffffffffffffffffffffffffffffffffffffffffffffffffffff19166020820180517bffffffffffffffffffffffffffffffffffffffffffffffffffffffff8381831617835250505050610820565b5050565b60008151905060006a636f6e736f6c652e6c6f679050602083016000808483855afa5050505050565b82805461085590610ee5565b90600052602060002090601f01602090048101928261087757600085556108be565b82601f1061089057805160ff19168380011785556108be565b828001600101855582156108be579182015b828111156108bd5782518255916020019190600101906108a2565b5b5090506108cb91906108cf565b5090565b5b808211156108e85760008160009055506001016108d0565b5090565b60006108ff6108fa84610d6f565b610d4a565b90508281526020810184848401111561091757600080fd5b610922848285610ea3565b509392505050565b60008135905061093981611110565b92915050565b600082601f83011261095057600080fd5b81356109608482602086016108ec565b91505092915050565b60006020828403121561097b57600080fd5b60006109898482850161092a565b91505092915050565b6000602082840312156109a457600080fd5b600082013567ffffffffffffffff8111156109be57600080fd5b6109ca8482850161093f565b91505092915050565b60006109df8383610b78565b905092915050565b6109f081610e67565b82525050565b6109ff81610e67565b82525050565b6000610a1082610db0565b610a1a8185610dd3565b935083602082028501610a2c85610da0565b8060005b85811015610a685784840389528151610a4985826109d3565b9450610a5483610dc6565b925060208a01995050600181019050610a30565b50829750879550505050505092915050565b6000610a8582610dbb565b610a8f8185610def565b9350610a9f818560208601610eb2565b610aa881611035565b840191505092915050565b6000610abe82610dbb565b610ac88185610e00565b9350610ad8818560208601610eb2565b610ae181611035565b840191505092915050565b6000610af9603483610e00565b9150610b0482611046565b604082019050919050565b6000610b1c602783610e00565b9150610b2782611095565b604082019050919050565b6000610b3f600083610de4565b9150610b4a826110e4565b600082019050919050565b6000610b62600f83610e00565b9150610b6d826110e7565b602082019050919050565b6000606083016000830151610b9060008601826109e7565b5060208301518482036020860152610ba88282610a7a565b9150506040830151610bbd6040860182610bc8565b508091505092915050565b610bd181610e99565b82525050565b610be081610e99565b82525050565b6000610bf182610b32565b9150819050919050565b60006020820190508181036000830152610c158184610a05565b905092915050565b60006020820190508181036000830152610c378184610ab3565b905092915050565b60006040820190508181036000830152610c598185610ab3565b9050610c6860208301846109f6565b9392505050565b60006040820190508181036000830152610c898185610ab3565b9050610c986020830184610bd7565b9392505050565b60006020820190508181036000830152610cb881610aec565b9050919050565b60006020820190508181036000830152610cd881610b0f565b9050919050565b60006020820190508181036000830152610cf881610b55565b9050919050565b6000602082019050610d146000830184610bd7565b92915050565b6000604082019050610d2f6000830185610bd7565b8181036020830152610d418184610ab3565b90509392505050565b6000610d54610d65565b9050610d608282610f17565b919050565b6000604051905090565b600067ffffffffffffffff821115610d8a57610d89611006565b5b610d9382611035565b9050602081019050919050565b6000819050602082019050919050565b600081519050919050565b600081519050919050565b6000602082019050919050565b600082825260208201905092915050565b600081905092915050565b600082825260208201905092915050565b600082825260208201905092915050565b6000610e1c82610e99565b9150610e2783610e99565b9250827fffffffffffffffffffffffffffffffffffffffffffffffffffffffffffffffff03821115610e5c57610e5b610f79565b5b828201905092915050565b6000610e7282610e79565b9050919050565b600073ffffffffffffffffffffffffffffffffffffffff82169050919050565b6000819050919050565b82818337600083830152505050565b60005b83811015610ed0578082015181840152602081019050610eb5565b83811115610edf576000848401525b50505050565b60006002820490506001821680610efd57607f821691505b60208210811415610f1157610f10610fd7565b5b50919050565b610f2082611035565b810181811067ffffffffffffffff82111715610f3f57610f3e611006565b5b80604052505050565b6000610f5382610e99565b9150610f5e83610e99565b925082610f6e57610f6d610fa8565b5b828206905092915050565b7f4e487b7100000000000000000000000000000000000000000000000000000000600052601160045260246000fd5b7f4e487b7100000000000000000000000000000000000000000000000000000000600052601260045260246000fd5b7f4e487b7100000000000000000000000000000000000000000000000000000000600052602260045260246000fd5b7f4e487b7100000000000000000000000000000000000000000000000000000000600052604160045260246000fd5b6000601f19601f8301169050919050565b7f547279696e6720746f207769746864726177206d6f7265206d6f6e657920746860008201527f616e2074686520636f6e7472616374206861732e000000000000000000000000602082015250565b7f4661696c656420746f207769746864726177206d6f6e65792066726f6d20636f60008201527f6e74726163742e00000000000000000000000000000000000000000000000000602082015250565b50565b7f57616974203135207365636f6e64730000000000000000000000000000000000600082015250565b61111981610e67565b811461112457600080fd5b5056fea2646970667358221220f5f85c885328fb3b2d1085876699e0f14fa79a5694a4b7d85a0d69260ab418a264736f6c63430008040033596f20796f2c204920616d206120636f6e747261637420616e64204920616d20736d617274",
  "linkReferences": {},
  "deployedLinkReferences": {}
}